:1000000000800020F14E00001D4F00001D4F000039
:100010001D4F00001D4F00001D4F00001D4F000030
:100020001D4F00001D4F00001D4F00001D4F000020
:100030001D4F00001D4F00001D4F00001D4F000010
:1000400029380000892300001D4F00001D4F0000CB
:100050001D4F00001D4F00004D2100001D4F0000EE
:100060001D4F00001D4F00001D4F0000E520000047
:100070001D4F00001D4F00001D4F00001D4F0000D0
:100080001D4F0000892100001D4F00001D4F000082
:100090001D4F00001D4F00001D4F00001D4F0000B0
:1000A000E50D00001D4F0000DD1F00001D4F00008A
:1000B0001D4F00001D4F00001D4F00001D4F000090
:1000C0001D4F00001D4F00001D4F00001D4F000080
:1000D0001D4F00001D4F00001D4F00001D4F000070
:1000E00010B5054C237833B9044B13B10448AFF372
:1000F00000800123237010BD0001002000000000DB
:100100005060000008B5064B1BB106480649AFF326
:1001100000800648036813B1054B03B1984708BD3A
:10012000000000005060000004010020900000204A
:1001300000000000154B002B08BF134B9D46A3F594
:10014000803A00218B460F461348144A121A05F0D4
:10015000ECFE0F4B002B00D098470E4B002B00D02D
:1001600098470020002104000D000D48002802D00F
:100170000C48AFF3008005F0A9FE2000290002F032
:10018000D5F905F08FFE00BF0000080000800020B8
:10019000000000000000000000010020B00B002063
:1001A000000000000000000080B483B000AF0346F0
:1001B000FB71084B97F907205209F97901F01F01EB
:1001C000012000FA01F143F822100C37BD465DF81A
:1001D000047B704700E100E080B483B000AF0346C9
:1001E000FB71094B97F907205209F97901F01F01BA
:1001F000012000FA01F1203243F822100C37BD46ED
:100200005DF8047B704700BF00E100E080B483B07C
:1002100000AF0346FB71094B97F907205209F979A2
:1002200001F01F01012000FA01F1603243F82210B1
:100230000C37BD465DF8047B704700BF00E100E06D
:1002400080B483B000AF7860044B7A68C3F81C2197
:100250000C37BD465DF8047B704700BF006000406E
:1002600080B483B000AF03463960FB71FB79002B8B
:100270000DD0FB79012B0AD0FB79022B07D0FB793B
:10028000032B04D0FB79042B01D0FB79052B094803
:10029000FA793B68012101FA03F319461346DB00A2
:1002A00013449B000344103359600C37BD465DF87E
:1002B000047B70470060004080B483B000AF034609
:1002C0003960FB71FB79002B0DD0FB79012B0AD033
:1002D000FB79022B07D0FB79032B04D0FB79042B8D
:1002E00001D0FB79052B0948FA793B68012101FA15
:1002F00003F319461346DB0013449B0003441033F9
:1003000019600C37BD465DF8047B70470060004003
:1003100080B584B002AF39600146F971BA717B7162
:10032000FA79BB7979790091397C01911046396865
:100330003A6803F067FE0837BD4680BD80B400AF61
:10034000054B054A126922F004021A6130BFBD460E
:100350005DF8047B704700BF00ED00E080B483B01F
:1003600000AF786039607B683A689A620C37BD46A6
:100370005DF8047B704700BF80B483B000AF786045
:1003800039607B68DA6A3B681A437B68DA620C374B
:10039000BD465DF8047B704780B400AF72B6084B71
:1003A0001B68B3F1FF3F04D0054B1B685A1C044B7C
:1003B0001A60034B1B681846BD465DF8047B704706
:1003C0003803002080B483B000AF0C4B1B68002BB7
:1003D0000DD00A4B1B685A1E084B1A60074B1B684E
:1003E0007B607B68002B00D162B67B6800E0002355
:1003F00018460C37BD465DF8047B70473803002073
:1004000080B483B000AF786039607B68DA683B689D
:10041000DB431A407B68DA600C37BD465DF8047B2D
:10042000704700BF80B483B000AF786039607B68EC
:10043000DA683B681A437B68DA600C37BD465DF8C2
:10044000047B704780B483B000AF78600B46FB70CC
:10045000FA787B685A600C37BD465DF8047B7047BC
:1004600080B582B000AF78607B68002B0FDB7B68C3
:10047000012B0CDC074B7A6813F8322005497B68A6
:10048000DB000B445B6810461946FFF715FF083781
:10049000BD4680BD585F000080B582B000AF786077
:1004A0007B68002B0FDB7B68012B0CDC074B7A6829
:1004B00013F8322005497B68DB000B445B6810466B
:1004C0001946FFF7CDFE0837BD4680BD585F0000D6
:1004D00080B582B000AF0F48012102F0FDFC00237F
:1004E0007B6011E00C4B7A6813F832200A497B6874
:1004F000DB000B445B68104619460422002303F01E
:10050000E7FD7B6801337B607B68012BEADD083700
:10051000BD4680BD00D20400585F0000B0B586B073
:1005200000AF1548012102F0D7FC144B3C461D4694
:100530000FCD0FC495E8030084E803003B46104844
:10054000194602F08FF80E480A21002202F064F8E2
:100550000B480121FFF766FF00BF094B9B6803F0C2
:100560000103002BF9D00620FFF750FE0620FFF70D
:100570001BFE1837BD46B0BD00920400685F000046
:100580000010004080B582B002AF02200621012297
:10059000012303F09DFD084B0022C3F81C2101201C
:1005A000FFF702FE0123009302200621002201230F
:1005B000FFF7AEFEBD4680BD0060004080B500AFD5
:1005C00000F088F98020012100F0E4F88F20032159
:1005D00000F0E0F88420002100F0DCF88520002104
:1005E00000F0D8F88620FF2100F0D4F88720002101
:1005F00000F0D0F88C200A2100F0CCF8E72000F0C1
:1006000003F98020132100F0C5F880BD80B582B0C9
:1006100002AF0120FFF7E0FD002300930220062136
:1006200000220123FFF774FE0248002102F054FC6F
:10063000BD4680BD00C2040090B585B000AF124831
:10064000012102F049FC1148012102F045FC104B48
:100650003C460FCB84E80F00032007210B22012327
:1006600003F036FD032006210B22012303F030FDA9
:10067000084B40F203129A633B460648194603F0C2
:1006800057FE1437BD4690BD00B2040040810400FF
:10069000805F000000A0004090B585B000AF124818
:1006A000012102F019FC1148012102F015FC104B48
:1006B0003C460FCB84E80F00022004210B220123CB
:1006C00003F006FD022005210B22012303F000FDAB
:1006D000084B03229A633B460648194603F028FE5E
:1006E0001437BD4690BD00BF00C204004081040025
:1006F000805F000000A4004080B485B000AF786047
:10070000234B72225A62224B01225A6000BF204BB7
:100710009B6A03F04003002BF9D01D4B40221A6363
:100720001B4B7A685A6200BF194B9B6A03F0400367
:10073000002BF9D0164B40221A63154B02225A6047
:10074000134B73225A62124B01225A6000BF104BA6
:100750009B6A03F04003002BF9D00D4B40221A6333
:1007600000BF0B4B9B6A03F02003002BF9D0084B12
:10077000DB69FB60064B08225A60054B02225A6077
:10078000FB6818461437BD465DF8047B704700BF10
:1007900000A4004080B483B000AF78603960194B8A
:1007A00072225A62174B01225A6000BF154B9B6A96
:1007B00003F04003002BF9D0124B40221A63114B77
:1007C0007A685A6200BF0F4B9B6A03F04003002B0C
:1007D000F9D00C4B40221A630A4B3A685A6200BFA8
:1007E000084B9B6A03F04003002BF9D0054B4022D5
:1007F0001A63044B02225A600C37BD465DF8047B35
:10080000704700BF00A4004080B483B000AF7860A0
:10081000124B72225A62114B01225A6000BF0F4BD9
:100820009B6A03F04003002BF9D00C4B40221A6363
:100830000A4B7A685A6200BF084B9B6A03F0400378
:10084000002BF9D0054B40221A63044B02225A6058
:100850000C37BD465DF8047B704700BF00A4004024
:1008600080B483B000AF78603960194B72225A624D
:10087000174B01225A6000BF154B9B6A03F04003DF
:10088000002BF9D0124B40221A63114B7A685A623E
:1008900000BF0F4B9B6A03F04003002BF9D00C4BB9
:1008A00040221A630A4B3A685A6200BF084B9B6A9F
:1008B00003F04003002BF9D0054B40221A63044B90
:1008C00002225A600C37BD465DF8047B704700BFBA
:1008D00000A0004080B400AF064B9B6803F001030A
:1008E000002B02D0034B20225A60BD465DF8047BEA
:1008F000704700BF00A4004080B400AF064B9B6867
:1009000003F00103002B02D0034B20225A60BD46A6
:100910005DF8047B704700BF00A0004080B485B044
:1009200000AF7860294B72225A62284B01225A602C
:1009300000BF264B9B6A03F04003002BF9D0234BEA
:1009400040221A63214B7A6842F020025A6200BFAB
:100950001E4B9B6A03F04003002BF9D01B4B402237
:100960001A631A4B01225A60184B73225A6200BF55
:10097000164B9B6A03F04003002BF9D0134B402227
:100980001A6300BF114B9B6A03F02003002BF9D0C0
:100990000E4BDB69FB600D4B04225A6000BF0B4B12
:1009A0009B6A03F02003002BF9D0084BDB693B6105
:1009B000064B08225A60054B02225A6007F10C03CD
:1009C00018461437BD465DF8047B704700A0004010
:1009D00080B500AF032007210B22002303F078FB32
:1009E000032006210B22002303F072FB03200121C8
:1009F0000122002303F06CFB80BD00BF80B500AF77
:100A0000032007210022002303F062FB03200621BC
:100A10000022002303F05CFB0320012100220023BD
:100A200003F056FB80BD00BF80B500AF032000215E
:100A30000422002303F04CFB0320012103F0AAFA57
:100A400003200021FFF738FC80BD00BF80B582B0D5
:100A500002AF0320012103F09DFA032001210122AE
:100A6000012303F035FB084B0022C3F81C210B20A7
:100A7000FFF79AFB012300930320012100220123A9
:100A8000FFF746FCBD4680BD0060004080B500AF6A
:100A9000FFF732FF80200321FFF7E2FE82200F21C3
:100AA000FFF7DEFE83200021FFF7DAFE842000211D
:100AB000FFF7D6FE85200821FFF7D2FE862004210D
:100AC000FFF7CEFE86201321FFF7CAFE8120012109
:100AD000FFF7C6FE81200121FFF7C2FE00F004F8F7
:100AE000FFF7B4FF80BD00BF80B400AF114B72228E
:100AF0005A62104B01225A6000BF0E4B9B6A03F0F2
:100B00004003002BF9D00B4B40221A63094BC02243
:100B10005A6200BF074B9B6A03F04003002BF9D0D9
:100B2000044B40221A63034B02225A60BD465DF813
:100B3000047B704700A0004080B500AF1948022137
:100B400002F0D0FB1848012102F0C6F91748012134
:100B500002F0C2F91648012102F0BEF9154804F06E
:100B600009F91448144904F0C3F8124B03225A65DA
:100B7000032004210422012303F0AAFA0320052103
:100B80000222012303F0A4FA0A4B0A4A926B42F0B4
:100B900004029A631820FFF739FB1820FFF704FBC3
:100BA00080BD00BF03001A000043020000D2040011
:100BB00070071400004008401000002080B485B089
:100BC00000AF0023BB600EE000237B6005E0FB6804
:100BD0000133FB607B6801337B607B68632BF6DD50
:100BE000BB680133BB60BB68632BEDDD1437BD46CA
:100BF0005DF8047B704700BF80B487B000AF7860B9
:100C000039603B4B1B683B61394B1B680F2B04D190
:100C1000374B00221A6000233B61364B1B680F2BB9
:100C200002D1344B00221A60314B1A68314B1B68D9
:100C3000D31A002B07DD2F4B1A682D4B1B68D31AD4
:100C40000F33FB600FE02A4B1A682A4B1B68D31A3C
:100C5000002B06DA274B1A68254B1B68D31AFB605A
:100C600001E00F23FB60FA683B689A423ADB3B697C
:100C70007B610CE07A693B69D31A7A6813441A786D
:100C80001D497B690B441A707B6901337B613A68AB
:100C90003B691A447B699A42ECDC164B1A68144B88
:100CA0001B689A4218D1154B144A926B22F001022C
:100CB0009A63124B0F4A12680F498A5C9A620C4B76
:100CC0001A683B681A440A4B1A600C4B0B4A926B29
:100CD00042F002029A6305E0054B1A683B681A4429
:100CE000034B1A601C37BD465DF8047B704700BF9C
:100CF0004401002040010020A006002000400840E0
:100D000080B584B000AF00237B6000233B600023EC
:100D1000FB6026E00023BB6015E01E49FA6813461D
:100D20005B0013449B00BA6813440B441A781A49B9
:100D3000BB680B441B789A4202D13B6801333B608D
:100D4000BB680133BB60BB680B2BE6DD3B680C2B3B
:100D500002D101237B6009E000233B60FB68013383
:100D6000FB600E4B1B68FA689A42D3DB7B68012B51
:100D700006D10020FFF774FB0120FFF78DFB05E093
:100D80000120FFF76DFB0020FFF786FB1037BD4603
:100D900080BD00BF1C060020040000209406002037
:100DA00080B584B000AF0523FB602D233B712D235C
:100DB0007B712D23BB710D23FB7100233B72074B0D
:100DC00003221A60064B00221A603B1D1846F96880
:100DD000FFF712FF1037BD4680BD00BF480100205D
:100DE0004C01002098B500AF974BDB6A03F0040379
:100DF000002B00F0F780954B1B68012B13D1944B0F
:100E00001B68914AD269D1B2924AD154904B1B6867
:100E1000042B02D100F078F93FE18D4B1B685A1C7E
:100E20008B4B1A6039E1894B1B68022B40F0BD8067
:100E3000874B1B68844AD269D1B2874AD154844B0C
:100E40001B68854AD25C854B1A70814B1B685A1C03
:100E50007F4B1A60824B1B68012B37DC7F4B1B7862
:100E60000A2B04D17E4B1B685A1C7D4B1A60784BB1
:100E70001B681A2B40F01181784B1B782F2B94BFE5
:100E800000230123DAB2754B1B78402B8CBF002363
:100E90000123DBB21340DBB2002B06D06F4B1B7873
:100EA000A3F130026F4B1A60F7E06E4B00221A601C
:100EB000FFF726FF6A4B00221A60654B00221A607A
:100EC000694B00221A60FFF76BFFE6E0654B1A687A
:100ED000654B1B689A4255DD604B1B780A2B0ED17F
:100EE000614B1B685A1C604B1A60604B00221A60F1
:100EF0005F4B00221A605F4B00221A60CDE0574B17
:100F00001B782C2B05D1594B1B685A1C574B1A6068
:100F1000C3E0524B1B780D2B00F0BF80534B1B6876
:100F2000002B14D1504B1A68514B1C684B4B19784D
:100F3000514813465B0013449B00234403440A4674
:100F40001A704B4B1B685A1C494B1A60A5E0474B63
:100F50001B68012B40F0A180434B1A68454B1C686D
:100F60003E4B1978454813469B0013449A0013449E
:100F7000234403440A461A703E4B1B685A1C3D4BDF
:100F80001A608AE0354B1B780A2B40F08680FFF709
:100F9000B7FE334B00221A602D4B00221A60324BF1
:100FA00000221A60FFF7FCFE77E0284B1B68032B3A
:100FB00073D1274B1B68244AD269D1B2304AD1542D
:100FC000234B1B68022B07D12E480121FFF72AFA79
:100FD0001F4B00221A6060E01D4B1B685A1C1C4B03
:100FE0001A605AE0184BDB6A03F00103002B54D05F
:100FF000154B01225A63144B134A926B22F00202E2
:101000009A63114B104A926B42F001029A631E4B95
:101010001B680F2B03D11C4B00221A6004E01A4BF3
:101020001B685A1C184B1A60174B1A68174B1B6821
:101030009A422FD0FFF7C2FD034B134A126814499E
:101040008A5C9A6229E000BF004008404801002005
:101050004C01002008060020D409002018030020BD
:101060001C030020940600202003002024030020FD
:10107000280300202C0300201C060020A80A0020C2
:101080009C0A002000100040400100204401002084
:10109000A00600201120FFF787F898BD80B58AB020
:1010A00000AF78607B687B627B6A1B683B620523CC
:1010B000FB6154233B753B6ADBB27B757B7D3B73E5
:1010C0003B6A1B12DBB2BB75BB7D7B733B6A1B1497
:1010D000DBB2FB75FB7DBB733B6A1B16DBB23B7659
:1010E0003B7EFB7307F1080207F10C03104619461B
:1010F000042204F011FF07F114031846F969FFF701
:101100007BFD2837BD4680BD80B584B000AF052388
:10111000FB6049233B712C237B713023BB7135234A
:10112000FB710D233B72074B02221A60064B002213
:101130001A603B1D1846F968FFF75EFD1037BD4683
:1011400080BD00BF480100204C01002080B584B064
:1011500000AF0523FB6030233B7130237B712423D8
:10116000BB712423FB7124233B72074B00221A60BE
:10117000064B01221A603B1D1846F968FFF73CFD3B
:101180001037BD4680BD00BF4C0100204801002043
:1011900080B584B000AF0523FB604F233B71002373
:1011A0007B710023BB710023FB7100233B723B1D4D
:1011B0001846F968FFF720FD1037BD4680BD00BF17
:1011C00080B584B000AF0523FB6046233B7100234C
:1011D0007B710023BB710023FB7100233B723B1D1D
:1011E0001846F968FFF708FD1037BD4680BD00BFFF
:1011F00080B483B000AF7860064B7A6802F00F02CB
:10120000A03253F8223018460C37BD465DF8047BF7
:10121000704700BF00C0084080B483B000AF786062
:10122000034B7A685A640C37BD465DF8047B7047FF
:1012300000C0084080B400AF034B1B6C1846BD468D
:101240005DF8047B704700BF00C0084080B584B0E3
:1012500000AF78602F4B00221A802F4B00221A70AB
:101260000023FB7336E0FA7B2C4B002123F812108D
:10127000FA7B2B4B4FF6FF7123F81210FB7B9B0080
:101280007A6813441B6818464FF0000104F0B8FD5B
:101290000346002B1BD1FA7BFB7B9B0079680B4438
:1012A0001968204B43F82210FB7B012202FA03F35A
:1012B0009AB2184B1B889BB213439BB29AB2154B40
:1012C0001A80154B1B780133DAB2134B1A70FB7B73
:1012D0000133FB73FB7B0F2BC5D9FFF75DF800F0E3
:1012E0002FF800F091F800F04DF800F057F80023C7
:1012F000FB7306E003F004FB00F0A8F8FB7B01336E
:10130000FB73FB7B632BF5D9FFF75CF81037BD4609
:1013100080BD00BFD4020020D6020020940200202D
:10132000B4020020D802002080B400AF034B1B8819
:101330009BB21846BD465DF8047B704790020020C2
:1013400080B500AF0A48012101F0C6FD094801211E
:1013500001F0C2FD0848022101F0C4FF0748012145
:1013600001F0BAFD0648012101F0B6FD80BD00BFC5
:1013700000A2040000D20400020018000043020092
:101380006006280080B500AF0248034901F0FEF86E
:1013900080BD00BF00140040D05F000080B582B067
:1013A00000AF1648012103F015F80023FB7111E08E
:1013B000134B1B881A46FB7942FA03F303F001032F
:1013C000002B04D0FB790F48194603F07DF9FB7917
:1013D0000133FB71FB790F2BEAD90020052103F0C3
:1013E000ADF80020002103F03FF91120FEF7DCFEEC
:1013F00003F086FA0837BD4680BD00BFE45F0000F9
:10140000D40200202460000080B582B000AF002329
:101410007B6012E00C4B1B881A467B6842FA03F390
:1014200003F00103002B05D002207968002200237D
:1014300002F04EFE7B6801337B607B680F2BE9D99D
:101440000837BD4680BD00BFD4020020F0B585B08E
:1014500000AF00BF624B1B6A03F01003002BF9D1F1
:101460005F4B5B6A03F4F0735B09BB605D4B1B78F9
:101470001A46BB689A4205DC5A4B1B78BA68D31AE5
:10148000BB6005E0574B1B78BA68D31A1033BB60BA
:101490000023FB6021E0544B1B881A46FB6842FA8C
:1014A00003F303F00103002B14D0504B1B781C46B0
:1014B000BB685A1CBA601846FFF79AFE034698B2FA
:1014C0004B49FA6813469B0013445B0023440246D1
:1014D00021F81320FB680133FB60FB680F2BDADD7A
:1014E000424B1B780133DAB2404B1A703F4B1B78EA
:1014F000092B02D93D4B00221A700023FB6068E0E3
:10150000394B1B881A46FB6842FA03F303F00103C8
:10151000002B5BD0FA6813469B0013449B00344AAF
:10152000134418460A2100F06DF803461946314B62
:10153000FA6823F81210FA6813469B0013449B00C4
:101540002B4A134418460A2100F084F80346194632
:10155000294BFA6823F81210264BFA6833F8123038
:10156000FB80FB68DEB2FB88184603F00FFF0446E1
:101570000D46FB88184604F05BFA02461F4BF968DB
:1015800053F821301046194604F0A6FA03461846CF
:1015900003F00EFF02460B46104619464FF00002BC
:1015A000174B04F083F802460B462046294603F009
:1015B0009FFD02460B461046194604F05FF90346AC
:1015C0009BB2304600211A4603F04EF9FB68013306
:1015D000FB60FB680F2B93DD1437BD46F0BD00BFE9
:1015E00000C00840D6020020D402002030030020B2
:1015F0005001002094020020B4020020D8020020F4
:101600000000594080B485B000AF78600B467B8005
:1016100000237B810023FB6011E0FB685B007A689C
:1016200013441B889BB27A899A4205D2FB685B00FF
:101630007A6813441B887B81FB680133FB607A88DE
:10164000FB689A42E9DC7B8918461437BD465DF891
:10165000047B704780B485B000AF78600B467B8018
:101660004FF6FF737B810023FB6011E0FB685B009A
:101670007A6813441B889BB27A899A4205D9FB6821
:101680005B007A6813441B887B81FB680133FB6035
:101690007A88FB689A42E9DC7B8918461437BD4694
:1016A0005DF8047B704700BFB0B590B000AF0D4B44
:1016B0003C461D460FCD0FC40FCD0FC40FCD0FC438
:1016C00095E80F0084E80F003B461846FFF7BEFD83
:1016D00000BFFFF729FE0346002BFAD14037BD4675
:1016E000B0BD00BF905F000080B586B000AF7860ED
:1016F000164B1B6803F47F031B0C184604F094F987
:1017000003467B61124B1B681B0D184604F08CF9D5
:1017100003463B610F4BFB60786804F089F9034690
:101720003869194604F0CEF803461846F96804F003
:1017300087FA03467869194604F0C4F80346BB608B
:10174000BB6818461837BD4680BD00BFB081E00FAA
:10175000BC81E00FD7A3C8C080B586B000AF2248D7
:10176000012101F0B9FB00233B7400237B740023AB
:10177000BB741F23FB7400233B7500237B75002380
:101780003B7100237B710023BB710023FB7100239D
:101790003B7200237B720023BB720023FB72002389
:1017A0003B73002001F000F90346FB7401233B74F6
:1017B0000E48002101F0C6F803463B7507F11003FF
:1017C0000B48194601F02EF808233B720023FB71E9
:1017D00000237B7101233B733B1D0548194601F033
:1017E00065F81837BD4680BD0002050098E00E0080
:1017F0000020004090B583B000AF2E4B1B78022B29
:101800003ED92D4B1B68184603F0B0FD02460B462F
:10181000104619464FF00002284B03F01DFE024609
:101820000B46104619464FF00002254B03F03EFFD1
:1018300002460B461046194604F020F80246214B9A
:101840001A60214B7B607868204904F045F9034613
:101850001C46194B1B68184604F0E6F80346204660
:10186000194604F039F903461846194904F0E8F915
:101870000346184604F0F6FA0246164B1A6016E0C4
:10188000104B20221A60104B7B6078684FF08E411D
:1018900004F022F9034618464FF0814104F0D0F9D4
:1018A0000346184604F0DEFA02460A4B1A600C376B
:1018B000BD4690BD0000002038010020000010400F
:1018C0000040AF40B00600203BDF9F4000007A445C
:1018D00000007A45A40A002080B584B000AF2E4BEA
:1018E0001B78022B04D92D48092101F0FBFC03E0F1
:1018F0002A48022101F0F6FC2948012101F0ECFA06
:101900002848012101F0E8FA274B274A926E42F459
:1019100000729A66254B1B68254800211A4603F081
:10192000A7F8244B1B68224801211A4603F0A0F8AF
:101930001F480021012203F03DF91D480121012229
:1019400003F038F93B1D00221A60043300221A60AC
:10195000043300221A80023300221A70013301235B
:101960003B7101233B7201237B720223BB730A4B41
:101970001B78184600F04CF83B1D0D48194603F043
:10198000A3F81A20FEF710FC09480821FEF7F4FC22
:101990001037BD4680BD00BF0000002002001800C7
:1019A000004302006026120000800C40B0060020B8
:1019B00000200840A40A002080B500AF03200021C9
:1019C000FEF77AFC00F08EFAFFF702F8FFF75EF8F8
:1019D000044B044AD2F8102142F00202C3F810214D
:1019E00080BD00BF0060004080B500AF074B074AD4
:1019F000D2F8102122F00202C3F81021FEF7FEFFF8
:101A000003200021FEF72CFC80BD00BF00600040D9
:101A100080B582B000AF0346FB71FEF7BDFCFB79D9
:101A2000054A52F82320511C034A42F82310FEF7BE
:101A3000C9FC0837BD4680BD1C01002080B582B0BE
:101A400000AF0346FB71FEF7A7FCFA79084B53F889
:101A50002230002B07DDFB79054A52F82320511E66
:101A6000034A42F82310FEF7ADFC0837BD4680BD9F
:101A70001C01002080B500AF0F4B1B68002B00DD60
:101A800018E00D4B5B68002B02DDFEF757FC11E000
:101A9000094B9B68002B03DD012002F017F909E0D8
:101AA000054BDB68002B03DD012002F05DF901E04E
:101AB00002F0B8F980BD00BF1C01002080B483B0E3
:101AC00000AF00237B6000237B6007E0074B7A6850
:101AD000002143F822107B6801337B607B68032B75
:101AE000F4DD0C37BD465DF8047B70471C01002017
:101AF00090B593B000AF00237B640023A7F8423079
:101B00000023A7F840300023FB630023BB630023BE
:101B10007B6300233B638348022101F0E3FB82489F
:101B2000012101F0D9F98148012101F0D5F980485E
:101B3000012101F0D1F97F48012101F0CDF907F130
:101B4000200300221A60043300221A6004330022AA
:101B50001A60043300221A700133012387F8203001
:101B6000012387F82130012387F82C3007F1100377
:101B700000221A60043300221A60043300221A6023
:101B8000043300221A70013301233B7401237B7458
:101B90000223FB7401233B77674800214FF4004286
:101BA00002F066FF64480021012203F003F83B1DA8
:101BB00000221A60043300221A60043300221A80C3
:101BC000023300221A70013301233B7101237B7120
:101BD00001233B720123BB7307F1200357481946C9
:101BE00003F000F907F110035548194603F0FAF81D
:101BF0003B1D5148194602F067FF00BF4E4B1B6A60
:101C000003F00403002BF9D04C4B4C4A526842F0CD
:101C100002025A604A4B4A4A526842F002025A6033
:101C200045480421FEF79AFB444B5B6AA7F8423013
:101C3000434B5B6AA7F84030B7F842307B64B7F893
:101C400040301B047B643748092101F04BFB3A48C4
:101C500000214FF47A7202F00BFF37480021012275
:101C600002F0A8FF07F120033448194603F0BAF840
:101C700007F110033248194603F0B4F83B1D2E4813
:101C8000194602F021FF00BF2B4B1B6A03F004032F
:101C9000002BF9D0294B294A526842F002025A60BF
:101CA000274B274A526842F002025A602248042118
:101CB000FEF754FB214B5B6A7B63214B5B6A3B6302
:101CC0007B6BBB633B6B1B04FB63BA6BFB6B13430C
:101CD000BB63786C03F0A8FE0446B86B03F0A4FE67
:101CE00003462046194603F0ABFF03461A46154B40
:101CF0001A60144B1B681846134903F0EDFE0346A7
:101D0000184604F0AFF80246104B1A60064800214E
:101D100001F0E2F80548002101F0DEF84C37BD463D
:101D200090BD00BF020018000052040000620400D1
:101D3000004302006026120000200840000001401D
:101D4000000401403401002000007A4438010020E2
:101D500080B588B000AFF8600B467A60FB72002354
:101D6000FB610023FB82284B03F5805308330122DB
:101D70001A60264B02225A602548002101F0ACF877
:101D8000244B1B781846FFF759FE0023BB6109E07E
:101D9000214BBA6933F81230FA691344FB61BB690D
:101DA0000133BB61BB69B3F5C87FF1DBFA691B4B3B
:101DB000A3FB0213DB09FB82FB8A1846FFF794FCA6
:101DC00003463B6107F110031846FFF767F93B69CB
:101DD0001846134904F032F80346002B0CD03B6937
:101DE0001846104904F020F80346002B04D00420C4
:101DF0000321FEF735FA03E004200321FEF75CFA25
:101E00002037BD4680BD00BF00200C4000200040B0
:101E10000002050001000020B40600201F85EB51E0
:101E2000000070410000F04180B588B000AF284844
:101E3000012101F051F8274B274A1A60254B002257
:101E40005A60244B01221A7200233B76234BFB611C
:101E500007F11803184601F0F3FD01233B7101233C
:101E60007B714FF40023BB601A4BFB603B1D0020CD
:101E7000194601F065FD01233B7403237B740123A4
:101E8000BB740023FB7400233B7507F11003002093
:101E900001211A4601F09CFD114B03F580530833D4
:101EA00001221A600E490E4B03F580530C331B6858
:101EB00043F0010201F580530C331A600020FEF755
:101EC000A5F90020FEF770F92037BD4680BD00BFA0
:101ED0000003020010060020511D00000004002035
:101EE00000200C4080B483B000AF00237B6000234F
:101EF0003B6005E07B6801337B603B6801333B60FE
:101F00003B68B3F57A7FF5DB0C37BD465DF8047BA3
:101F1000704700BF80B500AF1120FEF75DF90248A1
:101F2000002100F0D9FF80BD6006280080B500AF19
:101F30001120FEF739F90248012100F0CDFF80BDE4
:101F40006006280080B500AF0620FEF745F902487C
:101F5000002100F0C1FF80BD0092040080B500AFF9
:101F60001820FEF739F90248002100F0B5FF80BDC6
:101F70007017160080B500AF1A20FEF72DF9024841
:101F8000002100F0A9FF80BD6026120080B500AFDF
:101F90000720FEF721F90248002100F09DFF80BDD7
:101FA0000002050080B500AF0020FEF715F90248D9
:101FB000002100F091FF80BD0003020080B500AF5A
:101FC0000248002100F088FF80BD00BF00B204007D
:101FD00080B500AFFFF708FD80BD00BF80B582B0BF
:101FE00002AF36480821FEF7B9F93448012102F062
:101FF00017FD0246324B1B689A4251D1314B1B6888
:102000002E4801211A4602F033FD2C4801210122FD
:1020100002F0D0FD2C48012100F05EFF2B4B1B6825
:10202000002B13D1FFF776FF294B1B781846FFF7DB
:10203000EFFCFFF7C1FC254B1B685A1C234B1A60B1
:10204000234B1B781846FFF7F9FC14E01F4B1B6865
:10205000012B05D11D4B1B685A1C1C4B1A600AE052
:102060001A4B1B68022B06D1FFF760FFFFF7BCFC81
:10207000164B00221A60174B009340F28F13019306
:10208000002001210022144B01F03AFC134B1B7875
:102090001846FFF7BDFC12480121FEF7D3F90BE00B
:1020A000074B1B68054801211A4602F0E1FC034872
:1020B0000121012202F07EFDBD4680BD00200840C6
:1020C000B0060020A40A002000020500040600203B
:1020D0000200002024200040B4060020010000205F
:1020E0000020004080B584B000AF0220FEF7A8F8C1
:1020F0008C20FEF713FCF860FB681B68BB60FB6874
:1021000004331B687B60BB683B607B681B023A68DA
:1021100013433B603B680E2B09D83B68002B06D06D
:1021200004200221FEF7C8F8FFF732F809E03B6807
:10213000B3F5006F05D904200221FEF791F8FFF7EF
:102140003FF8FEF7D1FC1037BD4680BD80B582B0A8
:1021500000AF0C4B01229A610A4B9B6803F002030B
:102160005B087B607B68012B08D11120FEF734F8F7
:1021700004480121FEF744F9FEF7E8FF0837BD46A1
:1021800080BD00BF0010004080B586B000AF0023C6
:102190007B82FFF74FF8F860F868FFF73DF80023FF
:1021A000FB750BE0FB7DFA6822FA03F303F00103F1
:1021B000002B00D005E0FB7D0133FB75FB7D0F2B71
:1021C000F0D96D4B9B69BB606B4BFA7D012101FA25
:1021D00002F29A6101237B750023BB7519E002F0BE
:1021E0008FFB00BF644B1B6A03F01003002BF9D177
:1021F000614BDB697B60FB7D012202FA03F31A4627
:102200007B681340002B01D100237B75BB7D01331C
:10221000BB75BB7D092BE2D9574BBA689A617B7DB0
:10222000002B6DD0544AFB7D1B01134403F5327320
:102230001B6803F48033002B32D0FB7D012202FAAD
:1022400003F39BB2DB439AB24C4B1B889BB29BB20D
:1022500013409BB29AB2494B1A804749FB7D4648CE
:10226000FA7D1201024402F53272126822F48032C1
:102270001B010B4403F532731A603F4AFB7D1B01BF
:10228000134403F532731B687B807B88013B7B80A2
:10229000FA7D7B88104600211A4602F0E5FA2FE00D
:1022A000FB7D012202FA03F39AB2344B1B889BB2E6
:1022B0009BB213439BB29AB2304B1A802E49FB7DDE
:1022C0002D48FA7D1201024402F53272126842F47E
:1022D00080321B010B4403F532731A60264AFB7DE2
:1022E0001B01134403F532731B687B807B88013329
:1022F0007B80FA7D7B88104600211A4602F0B4FAF2
:10230000FFF712F803467B8200237B707B78013352
:102310007B707B8A002B28D0FFF7FCFDFFF71EFEA9
:1023200004200221FDF79CFF04200321FDF798FF04
:10233000FFF708FEFFF71EFEFFF728FEFFF732FE4D
:10234000FFF73CFEFFF744FEFFF7B8FB0C4B1B7892
:102350001846FFF75DFB0B4B00221A60FEF79CF955
:10236000FEF710F9FEF72AF902E07B7801337B7063
:102370001837BD4680BD00BF00C008409002002055
:10238000030000203C01002080B586B000AF002390
:10239000FB750023BB7500237B7500233B75002371
:1023A000FB740023BB7400237B7400233B74002365
:1023B000FB600023BB6000237B604020FDF740FFF3
:1023C0009620FEF799F90346FB759720FEF794F9DE
:1023D0000346BB759A20FEF78FF903467B759B2059
:1023E000FEF78AF903463B759820FEF785F9034608
:1023F000FB749920FEF780F90346BB749420FEF726
:102400007BF903467B749520FEF776F903463B740F
:10241000BB7DFB60FB681B02FB60FB7DFA6813431E
:10242000FB603B7DBB60BB681B02BB607B7DBA6809
:102430001343BB60BB7C7B607B681B027B60FB7CC7
:102440007A6813437B60E720FEF7DEF97B68962B02
:10245000D4BF00230123DAB27968BB68CB1A322BD0
:10246000D4BF00230123DBB21340DBB21A467968E4
:10247000FB68CB1A322BD4BF00230123DBB21340FD
:10248000002B0ED0284B01221A6004200321FDF7F7
:1024900013FFFEF7BBF8FFF749FDFEF73FF8FEF725
:1024A0004BFBBB68962BD4BF00230123DAB2B9687B
:1024B0007B68CB1A322BD4BF00230123DBB213403D
:1024C000DBB21A46B968FB68CB1A322BD4BF0023A3
:1024D0000123DBB21340002B23D0134B02221A60DE
:1024E00004200321FDF7E8FEFFF720FDFEF78EF83C
:1024F000FFF79AFCFFF730F90720FDF755FEFEF7CE
:1025000093FAFFF7EFFCFEF797F8FEF7BFFAFEF736
:1025100013FBFFF76FF9FFF7DFF904200321FDF745
:102520009FFE1837BD4680BD3C01002080B500AF3E
:10253000FFF7DEFAFDF7CCFFFFF7B6F8FFF7EAFC8E
:10254000FEF7AAF8FEF71EF8FEF738F8034B1B78E3
:102550001846FFF75DFAFFF78DFAFCE7030000204D
:1025600080B487B000AFF860B9607A60FB6803F1AF
:102570000473DA00BB6813449B007B617B697A6853
:102580001A601C37BD465DF8047B704780B582B089
:1025900000AF786039607A681D4B9A4203D07A6840
:1025A0001C4B9A4200D100BF3B681B78DA073B689E
:1025B0005B789B0713431A463B685B681B061A430C
:1025C0003B681B7A1B021A433B685B7A1B011A4368
:1025D0007B681A603B689B7A1B071A463B68DB7A6C
:1025E0001B041A433B68DB681B02134343F08073F0
:1025F00043F0B0037A6853607A683B681B7C1046EE
:1026000000211A46FFF7ACFF0837BD4680BD00BF6A
:10261000001000400014004080B483B000AF786028
:1026200013460A46FA70BB707A680C4B9A4203D084
:102630007A680B4B9A4200D100BF7B685B6823F03D
:10264000F702FB781B011A43BB781A437B685A6078
:102650000C37BD465DF8047B704700BF001000409A
:102660000014004080B582B000AF786039607A68AD
:10267000224B9A4203D07A68214B9A4200D100BF84
:102680007B68184600210022FFF76AFF3B681B7831
:10269000DA073B685B789B0713431A463B685B6825
:1026A0001B061A433B681B7A5B041A433B685B7A40
:1026B0001B041A433B689B7A1B021A433B68DB7A74
:1026C0001B011A433B681B7B9B001A437B681A6003
:1026D0003B685B7B1B041A463B681B691B021A4361
:1026E0007B685A607A683B681B7D104600211A4659
:1026F000FFF736FF0837BD4680BD00BF0010004021
:102700000014004080B487B000AF786013460A46DA
:10271000FA70BB70BB78002B04D01023FB603E4BDB
:102720003B6103E00023FB603C4B3B617B685A6BE1
:102730003B691340BB6000237B61FB78062B5BD8B1
:1027400001A252F823F000BF652700008327000094
:10275000A7270000C5270000F9270000F92700007F
:10276000E92700002E4B5B6803F4FE437A691343AC
:102770007B612B4B5B6803F07F037A6913437B61BA
:102780003DE0274B5B6803F0FE431B0E1B027A699A
:1027900013437B61224B5B6803F4FE031B0C7A69D5
:1027A00013437B612BE01E4B9B6803F4FE437A6965
:1027B00013437B611A4B9B6803F07F037A691343D1
:1027C0007B611CE0164B9B6803F0FE431B0E1B0253
:1027D0007A6913437B61124B9B6803F4FE031B0C65
:1027E0007A6913437B610AE00D4BDB6803F07F03DA
:1027F0007A6913437B6102E000237B6100BFFB68C1
:102800007A699A40BB681A437B685A631C37BD4695
:102810005DF8047B704700BFFFFF80808080FFFF72
:10282000B081E00F80B584B000AF786039603B685C
:102830001B79FB72FB7A002B06D11B48002100F0AC
:1028400081F80346FB7208E01748002100F07AF88F
:102850004FF4FA40002100F075F87B680A225A60B4
:102860003B681B781A063B68DB781B0403F4FE0305
:102870001A43FB7A1B0203F4FE431A433B685B785E
:102880001B011A433B689B781343FB603B685B79F1
:10289000002B03D0FB6843F00803FB607B68FA68F9
:1028A0001A601037BD4680BD405DC60080B584B05B
:1028B00000AF786039607B6802225A603B689B7881
:1028C000786819460022FFF71DFF3B681B781A073E
:1028D0003B685B781B051A433B681B791B0213435B
:1028E0001A463B68DB781B011343FB603B689B790E
:1028F000002B03D0FB6843F08073FB603B68DB79FF
:10290000002B03D0FB6843F00403FB603B685B795A
:10291000002B03D0FB6843F00203FB603B681B7A8B
:10292000002B03D0FB6843F00103FB603B689B78FE
:102930001B04FA681343FB607B68FA68DA6010379F
:10294000BD4680BD80B584B000AF786039607A68DC
:10295000134B9A4202D9124B7B6006E07B68B3F5B9
:10296000FA4F02D24FF4FA437B603B68002B03D14D
:102970000C4800F01DFB38603A687B6813445A1E0F
:102980007B68B2FBF3F3FB60FB68002B02D0FB68B3
:10299000013BFB60FB68DBB218461037BD4680BDCB
:1029A000405DC6004081040080B582B000AF786011
:1029B0007B68002B08D1114800F0FAFA78607B6838
:1029C000002B01D101237B607A680D4B9A4201D91B
:1029D0000B4B7B607B6803F5742303F23F237B6022
:1029E0007A68084BA3FB02139B0C7B607B68DBB20D
:1029F000013BDBB218460837BD4680BD408104006C
:102A00000048E80183DE1B4380B487B000AFF86064
:102A1000B9607A60FB6803F10473DA00BB681344A1
:102A20009B007B617B697A681A601C37BD465DF844
:102A3000047B704780B485B000AF786039607B68F4
:102A400003F10473DA003B6813449B00FB60FB68EE
:102A50001B6818461437BD465DF8047B704700BFFD
:102A600080B485B000AF78607B68002B04D07B68B1
:102A7000B3F5004F00D800BF7B68B3FA83F3C3F10E
:102A80001F03FB60FB6818461437BD465DF8047BE6
:102A9000704700BF80B400AF044BDB6C1B0EDBB291
:102AA0001846BD465DF8047B704700BFB081E00F5B
:102AB00080B400AF054BDB6C03F47F031B0CDBB26F
:102AC0001846BD465DF8047B704700BFB081E00F3B
:102AD00080B582B000AFFFF7EBFF03464A2B04D06E
:102AE000792B02D0482B22D023E0144B1B699BB2D8
:102AF00003F03F039BB21B02FB80104B9B699BB210
:102B000003F0F0039AB2FB881343FB800B4BDB69A5
:102B100003F0F0031B099AB2FB881343FB80FB8888
:102B2000B3F5017F01D3064B04E0064B02E0054BF1
:102B300000E0002318460837BD4680BDD0FF0FE0F7
:102B400000366E010048E80180B584B000AF7860BF
:102B500039607A683B689A4294BF00230123DBB254
:102B6000FB6006481E21FA68FFF74EFF0448082163
:102B7000FA68FFF749FF1037BD4680BD00800C4062
:102B800004800C4080B582B000AF07481E21FFF7DB
:102B900051FF786005480821FFF74CFF38607B68DB
:102BA00018460837BD4680BD00800C4004800C40AC
:102BB00080B582B000AF214B5B6903F4E063B3F5ED
:102BC000007F1CD0B3F5007F05D8002B25D0B3F5CE
:102BD000807F1FD02AE0B3F5C06F24D0B3F5E06F3B
:102BE0001ED0B3F5407F21D1FFF754FF0346122BCF
:102BF00002D9134B7B601CE0124B7B6019E0FFF79E
:102C000049FF0346122B02D90F4B7B6011E00F4B9B
:102C10007B600EE00E4B7B600BE00E4B7B6008E0B0
:102C20000D4B7B6005E00D4B7B6002E000237B6079
:102C300000BF7B6818460837BD4680BD00800C4049
:102C4000804F120040420F0040B56400C0CF6A00C0
:102C5000C0D8A700809FD500406F4001003FAB0166
:102C600080B582B000AF0D4800F08EFA0346FB70CD
:102C7000FB78072B05D0082B07D102F083F9786089
:102C800006E0FFF795FF786002E000237B6000BF5D
:102C90007B6818460837BD4680BD00BF06000C00A3
:102CA00080B485B000AF7860284BDB6B002B0CBF85
:102CB00000230123BB72254B41F67132DA63234BAB
:102CC0005B6803F00703FB60FB68012B01D9042B51
:102CD00002D10023FB7202E00123FB7200BF7A687D
:102CE0001B4B9A4207D9FB7A002B01D0052300E049
:102CF0000423FB6016E07A68154B9A420BD87A6879
:102D0000144B9A4207D9FB7A002B01D0032300E031
:102D10000123FB6006E0FB7A002B01D0022300E0D8
:102D20000023FB60094B094A526822F00701FA6848
:102D30000A435A60BB7A002B02D0044B0022DA63AC
:102D40001437BD465DF8047B704700BF00000C409F
:102D50000048E8010024F40080B500AF02F008F953
:102D600003461846FFF79CFF80BD00BF90B585B0B5
:102D700000AF78600023BB607B68344A934203D085
:102D8000334A934200D000E000BF786800F0FCF9BD
:102D90000346FB607B682D4A934203D02C4A934242
:102DA00006D00CE02B4B9B6A03F00303FB6006E0AC
:102DB000284B9B6A03F00C039B08FB6000BFFB6879
:102DC000032B3AD801A252F823F000BF032E0000D3
:102DD000DD2D0000E52D0000ED2D000002F064F96E
:102DE000B8602DE002F074F9B86029E002F0A6F8AE
:102DF0000446FFF7C7FE0346013324FA03F3BB6022
:102E00001EE00023BB607A68104B9A4203D07A68B8
:102E10000F4B9A4210D10F4B9A6A79680B4B99422B
:102E200001D1102300E0142322FA03F3002B03D076
:102E300002F044F9B86003E002E00023BB6000BF89
:102E4000BB6818461437BD4690BD00BF020018008D
:102E500003001A0000800C4080B483B000AF78609B
:102E6000094B5B6D03F00103002B00D006E000BFAF
:102E7000054B1A6D7B681340002BF9D10C37BD460A
:102E80005DF8047B704700BF00800C4080B582B0C5
:102E900000AF104800F078F90346FB70FB78032B75
:102EA00007D0082B09D0022B0BD102F011F9786062
:102EB0000AE002F0F9F8786006E002F063F8786062
:102EC00002E000237B6000BF7B6818460837BD46E0
:102ED00080BD00BF0723200090B587B000AF7860A9
:102EE0000B46FB7000233B617B681B0A03F00F035A
:102EF000013B092B49D801A252F823F0412F0000D1
:102F0000472F0000252F00008B2F00008B2F000083
:102F10004D2F0000572F00008B2F00008B2F00003B
:102F2000612F00001B4B7B611B4800F041F80446F9
:102F3000FFF7CEFD034620461946FFF705FE12E0D7
:102F4000164B7B610FE0164B7B610CE0154B7B61F0
:102F500001233B6107E0144B7B6110233B6102E0DE
:102F6000124B7B6100BF7B681B0B03F01F03FB60F0
:102F70003B69002B02D03869FFF76EFFFB78786958
:102F8000F9681A46FFF740FD00E000BF1C37BD4658
:102F900090BD00BF40800C400043020008800C4000
:102FA00044800C4058800C4060800C4078800C407D
:102FB00090B585B000AF78607B6803F47813B3F503
:102FC000A01F00F0AB80B3F5A01F1AD8B3F5402FB7
:102FD00000F0BF80B3F5402F08D8B3F5003F3CD0D8
:102FE000B3F5802F2DD0002B27D0BEE0B3F5801F86
:102FF0003CD0B3F5901F47D0B3F5602F00F0AD8003
:10300000B3E0B3F5001F00F0AC80B3F5001F0AD8A1
:10301000B3F5C01F25D0B3F5D01F7AD0B3F5B01FDC
:1030200000F08980A1E0B3F5181F4ED0B3F5201F42
:1030300062D0B3F5101F35D097E001F0A3FFF86020
:1030400096E001F09FFFF8604C4B9B6803F00F0384
:10305000FA6822FA03F3FB608AE001F06FFFF86080
:1030600086E04748FFF782FEF86081E04448FFF7BA
:103070007DFEF860414B9B6E03F0F0031B09FA687C
:1030800022FA03F3FB6073E03D48FFF76FFEF86040
:103090003A4B9B6E03F470631B0AFA6822FA03F33F
:1030A000FB6065E03648FFF761FEF860334B9B6ECE
:1030B00003F440531C0B1020FFF7D2FC03462344BB
:1030C000FA6822FA03F3FB6052E02D48FFF74EFE48
:1030D000F8602A4B9B6E03F440531B0BFA6822FAEC
:1030E00003F3FB60254BDB6F03F007030133FA6842
:1030F000B2FBF3F3FB603BE02148FFF737FEF860DB
:103100001E4B9B6E03F00303FA6822FA03F3FB6085
:103110002EE01C48FFF72AFEF86029E01948FFF767
:1031200025FEF860154B1B6F03F00303FA6822FAC3
:1031300003F3FB601CE01348FFF718FEF8600F4B29
:103140001B6F03F030031B09FA6822FA03F3FB60DC
:103150000EE0FFF785FDF8600AE0FFF729FDF86053
:1031600006E0FFF793FEF86002E00023FB6000BF7B
:10317000FB6818461437BD4690BD00BF00800C4068
:103180000200180003001A0080B485B000AF786018
:103190000123FB737B6803F00F03BB60BB68013B3B
:1031A000062B00F2938001A252F823F0C9310000EF
:1031B000FF3100003B320000CD320000CD32000074
:1031C0007732000099320000454BDB6A03F47053FC
:1031D000B3F5805F09D0B3F5005F03D0B3F5006F9E
:1031E00006D008E00223FB7308E00323FB7305E02D
:1031F0000423FB7302E00523FB7300BF69E0384B37
:103200009B6A03F00303022B06D0032B07D0012B8C
:1032100008D10323FB730FE00223FB730CE00623AA
:10322000FB7309E02E4B9B6A03F48033002B02D022
:103230000923FB7300E000BF4BE0294B9B6A03F0BE
:103240000C03082B06D00C2B07D0042B08D103232A
:10325000FB730FE00223FB730CE00623FB7309E012
:103260001F4B9B6A03F48013002B02D00923FB73CE
:1032700000E000BF2DE01A4B1B6803F08053002BC9
:1032800003D0B3F1805F03D023E00723FB7302E098
:103290000823FB7300BF1CE0114BDB6A03F46033AF
:1032A000B3F5803F08D0B3F5003F08D0B3F5004F29
:1032B00008D10823FB7308E00223FB7305E0032316
:1032C000FB7302E00123FB7300BF02E00023FB73EA
:1032D00000BFFB7B18461437BD465DF8047B704782
:1032E00000800C4090B589B000AF78600B46FB7051
:1032F0000323FB610323FB7600233B617B6803F020
:103300000F03FB60FB68013B062B00F2348101A236
:1033100052F823F0313300001D3400001D3400004A
:103320007735000077350000E53400000F350000E8
:10333000FB78023B072B00F2228101A252F823F016
:10334000613300006B33000075330000BF330000B1
:103350007F3500007F3500007F3500007F3500009D
:103360000423FB610023FB7639E00323FB61012387
:10337000FB7634E00223FB610223FB76FFF7A8FB18
:1033800003465C1CFFF7A4FB034620461946FFF7E3
:10339000DBFB01F077FE02467C4B9A4206D97C4B60
:1033A0007B4A126842F060021A6018E0784B784A53
:1033B000126822F0600242F020021A600FE001233E
:1033C000FB610323FB76FFF783FB03465C1CFFF7DF
:1033D0007FFB034620461946FFF7B6FB00BFFB7E86
:1033E00018460121012200F0D9F8FFF7B5FC684B1F
:1033F000FA695A626748FFF7DBFD0446FFF768FB8E
:10340000034620461946FFF79FFB00F033FD01F00D
:1034100095FDB860B868FFF743FCADE0FB78013B71
:10342000082B00F2AE8001A252F823F051340000C4
:1034300057340000673400008335000083350000F6
:103440007734000083350000833500009B34000092
:1034500000237B6126E000200121012200F09EF87C
:1034600002237B611EE001200121012200F096F879
:1034700001237B6116E001F061FDB860FFF728FBD6
:103480000346B8681946FFF75FFB43480421012251
:10349000FFF7BAFA03237B6104E000237B61012379
:1034A0003B6100BFFB68022B0DD1394A384B9B6A48
:1034B00023F4803323F00303796919433B691B0428
:1034C0000B43936258E0324A314B9B6A23F48013DA
:1034D00023F00C037969890019433B691B050B43F1
:1034E000936249E0FB78072B02D0082B07D049E014
:1034F000274B274A126822F080521A6006E0244BBC
:10350000234A126842F080521A6000BF34E0FB7810
:10351000032B14D0082B22D0022B00D032E0002045
:103520000121012200F03AF8194B40225A6200BFF3
:10353000174BDB6A03F48033002BF9D01AE001202B
:103540000121012200F02AF8114B60225A6200BFCB
:103550000F4BDB6A03F40033002BF9D00AE00C4B6D
:1035600020225A6200BF0A4BDB6A03F40043002B9F
:10357000F9D000BF00E000BFFFF704FB02E000BF8E
:1035800000E000BF2437BD4690BD00BF0048E80101
:1035900000800C400043020040800C4080B586B0A3
:1035A00000AF13460246FA710A46BA717B71FB7985
:1035B000042B4AD801A252F823F000BF09360000BC
:1035C000FB350000DF350000D1350000ED3500008F
:1035D00001233B610223FB6001237B611DE0042387
:1035E0003B610823FB6003237B6116E010233B61F2
:1035F0002023FB6005237B610FE040233B61802398
:10360000FB6007237B6108E04FF480733B614FF45C
:103610000073FB6009237B6100BFBB79002B0ED0D8
:103620000C4B3A691A627B79002B0BD000BF0A4819
:103630007969FFF7FFF90346002BF8D002E0054B4C
:10364000FA681A6200F016FC00E000BF1837BD46A9
:1036500080BD00BF00800C402C800C4080B483B043
:1036600000AF0346FB71084B97F907205209F9791F
:1036700001F01F01012000FA01F143F822100C377C
:10368000BD465DF8047B704700E100E080B483B084
:1036900000AF0346FB71094B97F907205209F979EE
:1036A00001F01F01012000FA01F1203243F822103D
:1036B0000C37BD465DF8047B704700BF00E100E0B9
:1036C00080B483B000AF0346FB71094B97F9072024
:1036D0005209F97901F01F01012000FA01F160326D
:1036E00043F822100C37BD465DF8047B704700BFDD
:1036F00000E100E080B487B000AFF860B9607A60A4
:10370000FB6803F10473DA00BB6813449B007B6120
:103710007B697A681A601C37BD465DF8047B704788
:1037200080B489B000AF7860F970BA707B707B6844
:103730001A013C4B9B681344BB61BB78002B02D041
:10374000BB69FB6105E07B681A01364BDB681344FB
:10375000FB61BB69DB687B617B69002B02D0BA78B7
:103760007B691A72FB6A002B14D0FB699B6803F01B
:1037700040639B0E3B613B69032B03D1FB69FA6AF3
:103780001A6007E03B693A6B9A40FB6A13441A4699
:10379000FB691A60BB6A002B12D0FB699B689B0F08
:1037A0003B613B69032B03D1FB69BA6A5A6007E0AE
:1037B0003B693A6B9A40BB6A13441A46FB695A60EC
:1037C0007B68012202FA03F3FB607B78002B03D0B5
:1037D000144BFA689A6102E0124BFA68DA61BB781E
:1037E000002B03D00F4BFA685A6302E00D4BFA68C6
:1037F0001A63FB699B6823F47F5323F03703BB6094
:103800003B6B1B01BA681343BB60FB78BA68134378
:10381000BB60FB69BA689A602437BD465DF8047BDB
:10382000704700BF00200C4080B58AB000AF334B1A
:1038300003F580531B68BB61304B03F580530C3399
:103840001B68BA691340BB612C4B9B6B7B61BA69E7
:103850007B6913403B620023FB6149E000237B62EC
:103860003BE03B6A03F00103002B30D0234B9B6805
:103870003B6101227B6A02FA03F3FB601F4B03F5F5
:1038800080530833FA681A607B6A1B013A69134453
:10389000DB68BB60BB68002B19D0BB681B7A7B6000
:1038A000BB681B7A83F00103DAB2BB681A72BB688B
:1038B0001B68002B0BD0BB681B68786A7A68002AEB
:1038C0000CBF00220122D1B2BA68526898473B6A05
:1038D0005B083B627B6A01337B623B6A002BC0D191
:1038E0007B69DA43BB6913403B62FB690133FB61CF
:1038F000FB69012BB2DD2837BD4680BD00200C409E
:1039000080B588B004AFF8607B600B46FB7213464D
:10391000BB72FA7ABB7A79680091B9690191F96949
:103920000291F8680121FFF7FBFE044BFA680121C0
:1039300001FA02F29A621037BD4680BD00200C40A9
:1039400080B584B000AF786039601F4B9B68FB6026
:103950007B681B01FA6813443A689268DA603B6836
:103960001B78002B06D0184B7A68012101FA02F26D
:103970009A6305E0144B7A68012101FA02F2DA63D6
:10398000114B3A6851687A6802F5886243F8221050
:103990003B685B78002B0ED00B4B7A68012101FA53
:1039A00002F203F5805308331A600848796801224F
:1039B000FFF7A0FE04E0054879680022FFF79AFEB1
:1039C0001037BD4680BD00BF00200C400C300C40BD
:1039D00080B487B000AFF8600B467A60FB72FB7A68
:1039E000002B03D0154B9B687B6102E0134BDB6817
:1039F0007B61FB681B017A6913447B617B681B78E0
:103A00009A077B689B781B071A437B685B789B0649
:103A10001A437B689B781B0613431A467B681B7905
:103A20009B041A437B68DB789B031A437B699A608B
:103A30001C37BD465DF8047B704700BF00200C407A
:103A400080B582B000AF786010480121FFF744FADA
:103A500000F020F80020FFF733FE0020FFF7FEFD06
:103A60000B4B03F580530C334FF000421A60084BA8
:103A70007A6852689A60064B7A681278520142F06E
:103A800001025A600837BD4680BD00BF0003020036
:103A900000200C4080B582B000AF0020FFF7F6FD9B
:103AA0001C4B00225A601B4B40F6FF72DA61194B27
:103AB00040F6FF725A62174B40F6FF72DA62154BFE
:103AC00040F6FF725A63134B40F6FF72DA63114BF4
:103AD0000122DA640F4B03F580530C3300221A6085
:103AE0000C4B03F5805308330B4A1A6000237B60AC
:103AF00009E0084B7A6802F58862002143F8221039
:103B00007B6801337B607B680B2BF2DD0837BD4699
:103B100080BD00BF00200C40FF0F008080B500AFCB
:103B200001F00CFA80BD00BF80B400AF034B4AF631
:103B3000E8529A60BD465DF8047B704700600C4017
:103B400080B400AF034B0022C3F88420BD465DF86B
:103B5000047B704700800C4080B400AF044B45F6F6
:103B60000E02C3F88420BD465DF8047B704700BF99
:103B700000800C4080B582B000AF384BD3F8843061
:103B800003F001037B60FFF7E7FF00233B60344B4A
:103B90001B6803F001033A6813433B60304B1B681A
:103BA00003F010033A6813433B602D4B1B6803F08E
:103BB00040033A6813433B60294B1B6803F004033E
:103BC0003A6813433B60264B1B6803F480733A68E2
:103BD00013433B60214B3A681A62214B1B6803F484
:103BE0007053B3F5805F06D0B3F5005F0ED0B3F528
:103BF000006F16D020E000BF184BDB6A03F0800393
:103C0000002BF9D0154B03225A6215E000BF134B6D
:103C1000DB6A03F40073002BF9D0104B04225A62C4
:103C20000AE000BF0D4BDB6A03F00803002BF9D05C
:103C30000A4B02225A6200BF094B1B6803F00103C2
:103C4000002B02D1054B02221A627B68002B01D0A7
:103C5000FFF776FF0837BD4680BD00BF00800C40EF
:103C60003403002080B483B000AF174B1B699BB2B4
:103C700003F03F039BB21B02FB80134B9B699BB27B
:103C800003F0F0039AB2FB881343FB800E4BDB6911
:103C900003F0F0031B099AB2FB881343FB80FB88F7
:103CA000B3F5827F03D3FB88B3F5017F01D10123F4
:103CB00000E0002303F00103DBB218460C37BD46D9
:103CC0005DF8047B704700BFD0FF0FE080B586B081
:103CD00000AF0346FB711F4BDA6A1F4B1A601F4B84
:103CE0001E4A126942F004021A61FFF7BBFF034645
:103CF000FB75FB7D002B11D0194B1A68194B134033
:103D0000FB60174BFA68C3F88020154B5B6823F003
:103D100046033B61124B3A69C3F8842030BFFB7DF8
:103D2000002B05D00E4BFA681A600D4B3A695A60A9
:103D3000FB79002B02D0FFF71DFF07E0064B1B6845
:103D400003F48063002B01D1FFF7E8FE1837BD466E
:103D500080BD00BF00800C403403002000ED00E077
:103D600000E100E09CF1FD0080B586B000AF0346A5
:103D7000FB71274BDA6A274B1A60254BD3F8843046
:103D800003F001037B61FFF7E7FE214B4FF4207244
:103D90001A627B69002B01D0FFF7D2FE1E4B1E4A30
:103DA000126942F004021A61FFF75CFF0346FB74DC
:103DB000FB7C002B11D0194B1A68194B1340BB60C8
:103DC000164BBA68C3F88020144B5B6823F0460397
:103DD000FB60124BFA68C3F8842030BFFB7C002BD9
:103DE00005D00E4BBA681A600C4BFA685A60FB7922
:103DF000002B02D0FFF7BEFE07E0064B1B6803F462
:103E00008063002B01D1FFF789FE1837BD4680BDC6
:103E100000800C403403002000ED00E000E100E0F1
:103E20009CF1FD0080B584B000AF114B1B6823F0FE
:103E30000C0343F00803BB600D4B1B6843F00C03FD
:103E40007B60FFF771FE0023FB6008E0084BBA6857
:103E50001A60074B7A681A60FB680133FB60FB68E5
:103E6000032BF3DD024BBA681A601037BD4680BDE4
:103E700000600C4080B400AF034BDA6A034B1A6059
:103E8000BD465DF8047B704700800C403403002081
:103E900080B487B000AFF860B9607A60FB6803F166
:103EA0000473DA00BB6813449B007B617B697A680A
:103EB0001A601C37BD465DF8047B704780B485B03E
:103EC00000AFF860B9607A60FB681A68BB68DB43D2
:103ED0001A407B681A43FB681A601437BD465DF8C8
:103EE000047B704780B483B000AF03463960FB7138
:103EF000FB79002B0DD0FB79012B0AD0FB79022B2B
:103F000007D0FB79032B04D0FB79042B01D0FB797C
:103F1000052B0948FA793B68012101FA03F3194698
:103F20001346DB0013449B000344103359600C37E5
:103F3000BD465DF8047B70470060004080B483B0EC
:103F400000AF03463960FB71FB79002B0DD0FB7984
:103F5000012B0AD0FB79022B07D0FB79032B04D06D
:103F6000FB79042B01D0FB79052B0948FA793B68D2
:103F7000012101FA03F319461346DB0013449B00A9
:103F80000344103319600C37BD465DF8047B70475D
:103F90000060004090B482B000AF02460B46FA7158
:103FA000BB71FB79002B0ED0FB79012B0BD0FB7979
:103FB000022B08D0FB79032B05D0FB79042B02D010
:103FC000FB79052B03D1BB79032B00D800BF0C482C
:103FD000FA790B4CF9790B46DB000B449B00234428
:103FE0001B6823F00301BB7919431346DB0013441C
:103FF0009B00034419600837BD4690BC704700BF62
:104000000060004080B586B000AFB9607A600246BB
:10401000FA73BB73FB7B002B0DD0FB7B012B0AD00B
:10402000FB7B022B07D0FB7B032B04D0FB7B042BF9
:1040300001D0FB7B052BBB68072B0ED8BB689B0010
:1040400007229A40F97BBB689B0001FA03F31A48E8
:1040500011461A46FFF732FF10E0BB68083B7B6150
:104060007B699B0007229A40F97B7B699B0001FAE0
:1040700003F3124811461A46FFF720FFBB7B104896
:10408000B9681A46FFF704FF97F820300D48B96861
:104090001A46FFF7FDFE0C4BBA68012101FA02F245
:1040A000C3F81C2197F824300848B9681A46FFF76E
:1040B000EFFE1837BD4680BD00610040046100403E
:1040C000086100400C610040006000401061004049
:1040D00090B585B000AFB9607B600346FB731346B3
:1040E000BB73FB7B002B0DD0FB7B012B0AD0FB7B32
:1040F000022B07D0FB7B032B04D0FB7B042B01D0CE
:10410000FB7B052BBB7B002B0DD07B68002B05D0E8
:10411000FB7B1846B968FFF711FF04E0FB7B1846EC
:10412000B968FFF7DFFEBB68072B1DD82B48FA7B69
:104130002A4CF97B0B46DB000B449B002344596857
:10414000BB689B000F2404FA03F3DB431940BC7BDC
:10415000BB689B0004FA03F319431346DB001344C6
:104160009B000344596024E01C48FA7B1B4CF97BFC
:104170000B46DB000B449B00234408331968BB68E3
:1041800003F18043083B9B000F2404FA03F3DB4355
:104190001940BC7BBB6803F18043083B9B0004FAD9
:1041A00003F319431346DB0013449B000344083315
:1041B0001960BB7B002B0DD17B68002B05D0FB7BEE
:1041C0001846B968FFF7BAFE04E0FB7B1846B968E9
:1041D000FFF788FE1437BD4690BD00BF0060004069
:1041E00080B487B000AFF860B9607A60FB6803F113
:1041F0000473DA00BB6813449B007B617B697A68B7
:104200001A601C37BD465DF8047B704780B485B0EA
:1042100000AFF860B9607A60FB681A68BB68DB437E
:104220001A407B681A43FB681A601437BD465DF874
:10423000047B704780B588B000AFF860B9607A60E1
:10424000FB707B68002B00D15EE0FB681B6823F4E9
:104250004072FB681A60FA68FB781B0210464FF444
:1042600040711A46FFF7D2FFBB68002B03D12848E4
:10427000FEF79EFEB8604FF0FF33BB61FB681B6822
:1042800003F00203002B11D0FB78012B07D0022B87
:1042900008D0002B00D019E01E4BBB6105E01E4B7F
:1042A000BB6102E01D4BBB6100BF0FE0FB78012B3F
:1042B00006D0022B07D0002B08D1194BBB6105E0BB
:1042C000184BBB6102E0184BBB6100BFFB78174A7B
:1042D000D35C7B617B689B00BA68D21A7B69796882
:1042E00001FB03F3B2FBF3F3013BFB61FB681B68CB
:1042F00003F00203002B04D0FB69002B01D1012342
:10430000FB61FA69FB681A612037BD4680BD00BFBA
:104310004081040040164000C0D8A70080507401BE
:1043200080841E0040548900002D3101446000004B
:1043300080B582B000AF786039607A68174B9A42D6
:1043400003D07A68164B9A4200D100BF7B680022E6
:104350005A637B68134A1A637A683B685B78002B60
:1043600001D0002300E00123104601211A46FFF787
:1043700037FF3B6859683B689A683B681B7B7868E5
:10438000FFF758FF7A683B681B78104600211A46F1
:10439000FFF726FF0837BD4680BD00BF00A00040E4
:1043A00000A40040CFFF010080B487B000AFF860E8
:1043B000B9607A60FB6803F10473DA00BB681344E8
:1043C0009B007B617B697A681A601C37BD465DF88B
:1043D000047B704780B582B000AF78600B46FB70FD
:1043E000FB78002B01D000F0A5FA7B681B7D1846F6
:1043F00000F020F9504B7A68527891007A689278F0
:1044000011437A68926811437A68D26811437A68D6
:10441000D278520211437A681279920211437A6873
:104420005279520311437A689279520411437A689F
:10443000D279120411437A68527C92050A431A60B9
:104440007B681B781846002100F0D6F83A4B7A6852
:10445000127E11467A68527E920011437A68927EEB
:10446000920111437A68D27E520011437A68127F1A
:10447000120111437A68527F120211437A68927FC7
:10448000920211437A68126A11437A6892F82420E2
:10449000120511437A6892F82520920511437A6833
:1044A000926A0A439A60244B7A68928D11467A6820
:1044B00092F83B20920211437A6892F83C209203D2
:1044C00011437A6892F83D20920411437A6892F879
:1044D0003E20920511437A6892F83420520011432D
:1044E0007A6892F83520920011437A6892F8362063
:1044F000D20011437A6892F83720120111437A688A
:1045000092F83820520111437A6892F839209201CA
:1045100011437A6892F83A20D2010A43DA607B6844
:104520001B6B184600F0DCF9034B7A68127C1A61A9
:104530000837BD4680BD00BF00C0084080B588B0C8
:1045400000AF786039600023FB610123BB613F232A
:104550007B617B68002B03D12548FEF729FD78603D
:104560003B68002B04D03A687B689A4200D808E088
:1045700007E0FB690133FB61FB69012202FA03F3E7
:10458000BB613B68BA6902FB03F37A68B2FBF3F2E2
:104590007B6901339A4202D9FB69062BE9D93B6852
:1045A000BA6902FB03F37A68B2FBF3F3013B7B6168
:1045B000104B5B6823F47F2323F4E0633B61FB69CA
:1045C0001A027B691B0313433A6913433B61094B8E
:1045D0003A695A607B690133BA6902FB03F37A686E
:1045E000B2FBF3F3FB60FB6818462037BD4680BD85
:1045F0006006280000C0084080B584B000AF0246C5
:104600000B46FA71BB710A4B1B6823F00303FB6076
:10461000FB79FA681343FB60054BFA681A60BB79B3
:10462000002B01D000F06CF91037BD4680BD00BFF3
:1046300000C0084080B485B000AF0346FB71094B51
:104640005B6823F44003FB60FB799B05FA68134326
:10465000FB60044BFA685A601437BD465DF8047B72
:10466000704700BF00C0084080B485B000AF02466C
:104670000B46FA71BB71FB79002B0FD0012B00D0D8
:104680001AE0104B5B6823F00303FB60BB79FA6808
:104690001343FB600B4BFA685A600DE0094B5B68F3
:1046A00023F07003FB60BB791B01FA681343FB60C6
:1046B000044BFA685A6000BF1437BD465DF8047BAE
:1046C000704700BF00C0084080B584B000AF78607C
:1046D00039607B685B68B3F5C03F0BD13B68022B48
:1046E00008D03B68032B05D03B68042B02D03B6805
:1046F000052B00D100BF7B681B7A032B0BD13B68D5
:104700000C2B08D03B680D2B05D03B680E2B02D03C
:104710003B680F2B00D100BF7B681B7A032B0BD1AA
:104720003B68002B08D03B68012B05D03B68022B6F
:1047300002D03B68032B00D100BF394B9A6B3B681A
:104740005B00032101FA03F3DB431340FB607B684A
:104750001B7A1A463B685B0002FA03F3FA681343BC
:10476000FB602F4BFA689A633B68D8B27B68D97BB1
:104770007B681A7C7B685B7C00F05AF828497B6870
:104780005B7B5A047B689B7B9B041A437B689B8AF8
:104790001A437B68DB8A1A437B685B681A437B6831
:1047A0005B7ADB041A433B682C331B010B445A60D1
:1047B0001B497B68DA697B689B7A5B041A437B68D8
:1047C0001B7B9B041A437B68DB7ADB041A433B6840
:1047D0001B010B4403F532731A603B68D9B27B6846
:1047E0005A8A7B681B8B084611461A4600F03CF833
:1047F0007B689B780B4839681A46FFF7D5FD7B68C4
:104800005B78094839681A46FFF7CEFD7B681B784C
:10481000064839681A46FFF7C7FD1037BD4680BD08
:1048200000C008404CC0084054C0084018C00840B0
:1048300080B483B000AFF871B9717A713B710949E6
:10484000FB79B8797A79920110433A79520302439D
:104850002C331B010B441A600C37BD465DF8047BFA
:10486000704700BF00C0084080B485B000AF134659
:104870000246FA710A46BA807B80184AFB792C33CB
:104880001B0113445B6823F47F6323F00F03FB6079
:10489000BB88FA681343FB60104AFB792C331B0179
:1048A0001344FA685A600D4AFB791B01134403F55F
:1048B00032731B681B0C1B04FB607B88FA68134374
:1048C000FB60064AFB791B01134403F53273FA6857
:1048D0001A601437BD465DF8047B704700C008407D
:1048E00080B483B000AF7860044B7A6802F00F02A6
:1048F0001A630C37BD465DF8047B704700C0084062
:1049000080B400AF00BF0A4B1B6D03F02003002BE7
:10491000F9D1074B01225A6100BF054B1B6D03F013
:104920002003002BF9D1BD465DF8047B704700BF22
:1049300000C0084080B483B000AF374B0022DA6477
:10494000354B364A5A64344B334AD26842F001023E
:10495000DA6000BF304B1B6D03F02003002BF9D150
:104960002D4B0A225A612C4B00221A602A4B00223E
:104970009A60294B0022DA60274B00221A61264BED
:1049800000229A61244B00229A63234B0022DA63AF
:10499000214B00225A6500237B6018E01E4A7B6889
:1049A0002C331B01134400221A601B4A7B682C33F2
:1049B0001B01134400225A60174A7B681B011344F1
:1049C00003F5327300221A607B6801337B607B68D9
:1049D0000F2BE3D900237B600FE00F4B7A68403246
:1049E000002143F832100C4A7B684033DB0013444B
:1049F00000225A607B6801337B607B680F2BECD907
:104A000000BF054B1B6D03F02003002BF9D10C37C1
:104A1000BD465DF8047B704700C00840FFFF7F0083
:104A200080B485B000AF786039607A680F4B9A42E5
:104A300003D13B68012B00D800BF3B68002B02D09C
:104A4000012B04D007E07B681B69FB6006E07B68F4
:104A50005B69FB6002E00023FB6000BFFB68184657
:104A60001437BD465DF8047B704700BF0020084046
:104A700080B487B000AFF860B9607A60FA68114B13
:104A80009A4208D1BB68012B05D87B681B0C1B041C
:104A9000002B00D100BFBB68002B02D0012B04D03B
:104AA0000AE0FB6810337B6103E0FB6814337B6131
:104AB00000BF7B697A681A601C37BD465DF8047BCD
:104AC000704700BF0020084080B485B000AF786018
:104AD00039600023FB603B681B7883F00103DBB285
:104AE000002B08D07B689B6803F00103002B02D0E9
:104AF0007B6802225A603B685B78002B03D0FB681E
:104B000043F48053FB603B689B78002B03D0FB6829
:104B100043F48063FB603B68DB78002B03D0FB68C9
:104B200043F40063FB603B681B79002B03D0FB68F8
:104B300043F40073FB603B685B79002B03D0FB6898
:104B400043F48073FB603B689B79002B03D0FB68C8
:104B500043F04003FB603B68DB79002B03D0FB682C
:104B600043F08003FB603B681B7A9B00FA681343A9
:104B7000FB603B685B7A1B01FA681343FB603B6890
:104B80009B7AFA681343FB607B68FA681A603B689B
:104B90001B78002B08D07B689B6803F00103002B77
:104BA00002D17B6801225A601437BD465DF8047B50
:104BB000704700BF80B487B000AFF860B9607A601A
:104BC000FA68114B9A4208D1BB68012B05D87B6863
:104BD00023F0FF03002B00D100BFBB68002B02D0E5
:104BE000012B04D00AE0FB6818337B6103E0FB680B
:104BF0001C337B6100BF7B697A681A601C37BD4635
:104C00005DF8047B704700BF0020084080B483B08B
:104C100000AF786039607B681B6C03F00103002BE8
:104C200000D006E000BF7B685A6C3B681340002B45
:104C3000F9D10C37BD465DF8047B704780B586B06E
:104C400000AFF860B9607A60BB68002B12D1FA68D7
:104C5000164B9A4202D1164B7B6107E0FA68154B5E
:104C60009A4202D1144B7B6100E01BE07869FEF7A9
:104C70009FF9B860BB685A017B68B2FBF3F33B61F4
:104C80003B69203B3B613B69DB003B613A6947F68E
:104C9000F87313403B61F8680421FFF7B7FFFB6826
:104CA0003A69DA601837BD4680BD00BF0040084051
:104CB00070071400004408407017160080B483B0D9
:104CC00000AF78600B46FB70FB78002B08D000BF6C
:104CD0007B685B6C002BFBD17B6801221A6402E0CD
:104CE0007B6800221A640C37BD465DF8047B704770
:104CF00080B582B000AF786039607A681B4B9A4209
:104D000003D07A681A4B9A4200D100BF786802211A
:104D1000FFF77CFF7B680A225A6078680121FFF761
:104D2000CDFF7B681B6823F01C023B681B7B1A438A
:104D30003B685B7B1A433B689B7B1A437B681A602A
:104D40003B685A683B689B68786811461A46FFF7CB
:104D500075FF3B681B781A467B685A6078680021AB
:104D6000FFF7ACFF0837BD4680BD00BF00400840DC
:104D70000044084080B582B000AF78607A68174B75
:104D80009A4203D07A68164B9A4200D100BF7868E5
:104D90000121FFF793FF7B68EA225A607B680022BB
:104DA0001A607B680022DA607B6800221A617B68E7
:104DB00000225A617B6800229A637B6840F2F97294
:104DC0005A637B680022DA637B6800225A65786840
:104DD0000021FFF773FF0837BD4680BD0040084043
:104DE0000044084080B483B000AF786039607A68CE
:104DF0003B4B9A420BD07A683A4B9A4207D07A687A
:104E0000394B9A4203D07A68384B9A4200D100BF9E
:104E10003B681B7883F00103DBB2002B02D07B6878
:104E200002225A607B6800225A623B689B781A060D
:104E30003B68DB781B041A433B689B799B021A434F
:104E40003B68DB791B021A433B681B7A1A433B68B9
:104E50005B78002B01D0402300E000231A433B681D
:104E60005B7A002B01D0802300E000231A433B68CB
:104E70009B7A002B01D0202300E000231A433B68DB
:104E8000DB7A002B01D0102300E000231A433B689B
:104E90001B79002B02D04FF4005300E000231A438B
:104EA0003B685B79002B02D04FF0805300E0002379
:104EB0001A433B681B7B002B01D0082300E0002332
:104EC0001A437B681A603B681B78002B02D07B6812
:104ED00001225A600C37BD465DF8047B704700BF65
:104EE000000001400004014000080140000C0140A6
:104EF000064880470649074A074B9A42BEBF51F809
:104F0000040B42F8040BF8E7FBF714F99D5000007E
:104F10005C6000000000002094000020FEE700BF5D
:104F200080B400AF044BDB6C1B0EDBB21846BD46F1
:104F30005DF8047B704700BFB081E00F80B582B0A0
:104F400000AF00F01FF87860074B5B6803F00F03B9
:104F50007A6822FA03F37B60044B7A681A607B68F4
:104F600018460837BD4680BD00800C40AC0B0020C1
:104F700080B400AF024B1846BD465DF8047B704715
:104F8000006CDC0280B582B000AF334BDB6A03F407
:104F90007053B3F5805F0AD0B3F5005F03D0B3F56B
:104FA000006F08D00BE02D4B1B687B6047E04FF48F
:104FB00000437B6043E02A4B1B687B603FE0264B4D
:104FC000DB6803F4E063B3F5007F1BD0B3F5007F2B
:104FD00005D8002B24D0B3F5807F16D02BE0B3F595
:104FE000806F09D0B3F5A06F03D0B3F5407F06D032
:104FF00021E01C4B7B6021E01B4B7B601EE01B4BC8
:105000007B601BE01A4B7B6018E0FFF789FF0346CB
:10501000122B02D9174B7B6010E0174B7B600DE021
:10502000FFF77EFF0346122B02D9144B7B6005E08D
:10503000134B7B6002E000237B6000BF00BF064B88
:105040001B6803F4E0339B0B01337A68B2FBF3F384
:1050500018460837BD4680BD00800C402400002063
:1050600020000020003FAB01406F4001809FD50031
:10507000C0D8A70040B56400C0CF6A00804F1200BE
:1050800040420F0080B400AF034B1B681846BD467A
:105090005DF8047B704700BF2000002080B400AFA3
:1050A000BD465DF8047B704780B400AF4FF4004309
:1050B0001846BD465DF8047B704700BF80B400AF62
:1050C0004FF47A731846BD465DF8047B704700BF05
:1050D00080B400AF034B1B681846BD465DF8047BE7
:1050E000704700BF2400002081F0004102E000BFB3
:1050F00083F0004330B54FEA41044FEA430594EA98
:10510000050F08BF90EA020F1FBF54EA000C55EAD2
:10511000020C7FEA645C7FEA655C00F0E2804FEAA3
:105120005454D4EB5555B8BF6D420CDD2C4480EA85
:10513000020281EA030382EA000083EA010180EAB5
:10514000020281EA0303362D88BF30BD11F0004F03
:105150004FEA01314FF4801C4CEA113102D0404239
:1051600061EB410113F0004F4FEA03334CEA133374
:1051700002D0524263EB430394EA050F00F0A7808C
:10518000A4F10104D5F1200E0DDB02FA0EFC22FA87
:1051900005F2801841F1000103FA0EF2801843FA7B
:1051A00005F359410EE0A5F120050EF1200E012A6C
:1051B00003FA0EFC28BF4CF0020C43FA05F3C018AA
:1051C00051EBE37101F0004507D54FF0000EDCF123
:1051D000000C7EEB00006EEB0101B1F5801F1BD3CC
:1051E000B1F5001F0CD349085FEA30004FEA3C0CD0
:1051F00004F101044FEA445212F5800F80F09A80C6
:10520000BCF1004F08BF5FEA500C50F1000041EBC9
:10521000045141EA050130BD5FEA4C0C404141EBCD
:10522000010111F4801FA4F10104E9D191F0000FF4
:1052300004BF01460020B1FA81F308BF2033A3F177
:105240000B03B3F120020CDA0C3208DD02F1140C6E
:10525000C2F10C0201FA0CF021FA02F10CE002F1A9
:105260001402D8BFC2F1200C01FA02F120FA0CFCA2
:10527000DCBF41EA0C019040E41AA2BF01EB0451EB
:10528000294330BD6FEA04041F3C1CDA0C340EDCE9
:1052900004F11404C4F1200220FA04F001FA02F32C
:1052A00040EA030021FA04F345EA030130BDC4F1EA
:1052B0000C04C4F1200220FA02F001FA04F340EADF
:1052C0000300294630BD21FA04F0294630BD94F090
:1052D000000F83F4801306BF81F480110134013D77
:1052E0004EE77FEA645C18BF7FEA655C29D094EAE8
:1052F000050F08BF90EA020F05D054EA000C04BF66
:105300001946104630BD91EA030F1EBF0021002050
:1053100030BD5FEA545C05D14000494128BF41F0EF
:10532000004130BD14F580043CBF01F5801130BD53
:1053300001F0004545F0FE4141F470014FF00000DE
:1053400030BD7FEA645C1ABF194610467FEA655C8F
:105350001CBF0B46024650EA013406BF52EA033531
:1053600091EA030F41F4002130BD00BF90F0000F1F
:1053700004BF0021704730B54FF4806404F132045B
:105380004FF000054FF0000150E700BF90F0000F14
:1053900004BF0021704730B54FF4806404F132043B
:1053A00010F0004548BF40424FF000013EE700BF0B
:1053B00042004FEAE2014FEA31014FEA02701FBF9B
:1053C00012F07F4393F07F4F81F06051704792F06D
:1053D000000F14BF93F07F4F704730B54FF46074E7
:1053E00001F0004521F0004120E700BF50EA010232
:1053F00008BF704730B54FF000050AE050EA0102DF
:1054000008BF704730B511F0004502D5404261EB4E
:1054100041014FF4806404F132045FEA915C3FF48F
:10542000DCAE4FF003025FEADC0C18BF03325FEA28
:10543000DC0C18BF033202EBDC02C2F1200300FADD
:1054400003FC20FA02F001FA03FE40EA0E0021FA02
:1054500002F11444C1E600BF70B54FF0FF0C4CF4EC
:10546000E06C1CEA11541DBF1CEA135594EA0C0FA2
:1054700095EA0C0F00F0DEF82C4481EA030621EADD
:105480004C5123EA4C5350EA013518BF52EA033518
:1054900041F4801143F4801338D0A0FB02CE4FF0CA
:1054A0000005E1FB02E506F00042E0FB03E54FF0FA
:1054B0000006E1FB03569CF0000F18BF4EF0010EF2
:1054C000A4F1FF04B6F5007F64F5407404D25FEAEE
:1054D0004E0E6D4146EB060642EAC62141EA5551A1
:1054E0004FEAC52040EA5E504FEACE2EB4F1FD0CE3
:1054F00088BFBCF5E06F1ED8BEF1004F08BF5FEA61
:10550000500E50F1000041EB045170BD06F0004612
:1055100046EA010140EA020081EA0301B4EB5C04BF
:10552000C2BFD4EB0C0541EA045170BD41F48011B7
:105530004FF0000E013C00F3AB8014F1360FDEBFDC
:10554000002001F0004170BDC4F10004203C35DAB8
:105550000C341BDC04F11404C4F1200500FA05F33B
:1055600020FA04F001FA05F240EA020001F00042DC
:1055700021F0004110EBD37021FA04F642EB060152
:105580005EEA430E08BF20EAD37070BDC4F10C047C
:10559000C4F1200500FA04F320FA05F001FA04F240
:1055A00040EA020001F0004110EBD37041F100012C
:1055B0005EEA430E08BF20EAD37070BDC4F1200537
:1055C00000FA05F24EEA020E20FA04F301FA05F29F
:1055D00043EA020321FA04F001F0004121FA04F247
:1055E00020EA020000EBD3705EEA430E08BF20EA17
:1055F000D37070BD94F0000F0FD101F00046400051
:1056000041EB010111F4801F08BF013CF7D041EAD2
:10561000060195F0000F18BF704703F000465200D6
:1056200043EB030313F4801F08BF013DF7D043EAA7
:105630000603704794EA0C0F0CEA135518BF95EA5D
:105640000C0F0CD050EA410618BF52EA4306D1D1E4
:1056500081EA030101F000414FF0000070BD50EA03
:10566000410606BF1046194652EA430619D094EA8D
:105670000C0F02D150EA013613D195EA0C0F05D177
:1056800052EA03361CBF104619460AD181EA0301CB
:1056900001F0004141F0FE4141F470014FF0000083
:1056A00070BD41F0FE4141F4780170BD70B54FF01E
:1056B000FF0C4CF4E06C1CEA11541DBF1CEA13559E
:1056C00094EA0C0F95EA0C0F00F0A7F8A4EB050480
:1056D00081EA030E52EA03354FEA013100F0888077
:1056E0004FEA03334FF0805545EA131343EA126340
:1056F0004FEA022245EA111545EA10654FEA0026F5
:105700000EF000419D4208BF964244F1FD0404F5AD
:10571000407402D25B084FEA3202B61A65EB030509
:105720005B084FEA32024FF480104FF4002CB6EBC6
:10573000020E75EB030E22BFB61A754640EA0C0046
:105740005B084FEA3202B6EB020E75EB030E22BF86
:10575000B61A754640EA5C005B084FEA3202B6EBC7
:10576000020E75EB030E22BFB61A754640EA9C0086
:105770005B084FEA3202B6EB020E75EB030E22BF56
:10578000B61A754640EADC0055EA060E18D04FEA14
:10579000051545EA16754FEA06164FEAC30343EAB4
:1057A00052734FEAC2025FEA1C1CC0D111F4801F81
:1057B0000BD141EA00014FF000004FF0004CB6E77A
:1057C00011F4801F04BF01430020B4F1FD0C88BF19
:1057D000BCF5E06F3FF6AFAEB5EB030C04BFB6EB24
:1057E000020C5FEA500C50F1000041EB045170BD17
:1057F0000EF0004E4EEA113114EB5C04C2BFD4EB44
:105800000C0541EA045170BD41F480114FF0000EC7
:10581000013C90E645EA060E8DE60CEA135594EA43
:105820000C0F08BF95EA0C0F3FF43BAF94EA0C0F46
:105830000AD150EA01347FF434AF95EA0C0F7FF4BB
:1058400025AF104619462CE795EA0C0F06D152EA0F
:1058500003353FF4FDAE1046194622E750EA4106F3
:1058600018BF52EA43067FF4C5AE50EA41047FF404
:105870000DAF52EA43057FF4EBAE12E74A0011D2B6
:1058800012F5001211D20DD56FF47873B3EB62529A
:105890000ED44FEAC12343F0004343EA505323FAA6
:1058A00002F070474FF00000704750EA013002D11B
:1058B0004FF0FF3070474FF00000704780F000401D
:1058C00002E000BF81F0004142001FBF5FEA4103D8
:1058D00092EA030F7FEA226C7FEA236C6AD04FEAD8
:1058E0001262D2EB1363C1BFD2184140484041401D
:1058F000B8BF5B42192B88BF704710F0004F40F4CF
:10590000000020F07F4018BF404211F0004F41F4EA
:10591000000121F07F4118BF494292EA030F3FD0B6
:10592000A2F1010241FA03FC10EB0C00C3F12003C9
:1059300001FA03F100F0004302D5494260EB400058
:10594000B0F5000F13D3B0F1807F06D340084FEAC3
:10595000310102F10102FE2A51D2B1F1004F40EBB8
:10596000C25008BF20F0010040EA03007047490020
:1059700040EB000010F4000FA2F10102EDD1B0FAEB
:1059800080FCACF1080CB2EB0C0200FA0CF0AABFE0
:1059900000EBC25052421843BCBFD040184370477E
:1059A00092F0000F81F4000106BF80F40000013284
:1059B000013BB5E74FEA41037FEA226C18BF7FEA5B
:1059C000236C21D092EA030F04D092F0000F08BF9D
:1059D0000846704790EA010F1CBF0020704712F084
:1059E0007F4F04D1400028BF40F00040704712F1C3
:1059F00000723CBF00F50000704700F0004343F028
:105A0000FE4040F4000070477FEA226216BF08465D
:105A10007FEA23630146420206BF5FEA412390EA20
:105A2000010F40F4800070474FF0000304E000BF16
:105A300010F0004348BF40425FEA000C08BF7047C7
:105A400043F0964301464FF000001CE050EA01028B
:105A500008BF70474FF000030AE000BF50EA0102A0
:105A600008BF704711F0004302D5404261EB41018D
:105A70005FEA010C02BF84460146002043F0B643B2
:105A800008BFA3F18053A3F50003BCFA8CF2083AD7
:105A9000A3EBC25310DB01FA02FC634400FA02FCE0
:105AA000C2F12002BCF1004F20FA02F243EB0200E7
:105AB00008BF20F00100704702F1200201FA02FC49
:105AC000C2F1200250EA4C0021FA02F243EB02003C
:105AD00008BF20EADC7070474FF0FF0C1CEAD05280
